010103879UA UA EI 2019061402                                                                                                                                                                                                                                                                                                                                                                                                                                                                                        
02EI 3081471145777305    TULLY                         ROSEMARIEMS                                       NUA 05264EI 06775C2019061200000000ORD  CID  W Y W H 0000               053241200493802HJ26BRT     ACR0D3 00000    EI03880000001                   00000000000000000000                                                                                                                                                                                                                                     
02EI 3081471037009858    FARRELL                       AIDANMYLES                                        NUA 02400UA 02400A2019061200000000BOS  SFO  V Y V V 0000               016909836949901VAA3AQEN    AFF0V4 00000    EI03880000002                   00000000000000000000                                                                                                                                                                                                                                     
02EI 3081471031936668    MCCORMACK                     MICHAELTHOMASMR                                   NUA 00025UA 00025A2019061200000000EWR  SNN  Z C Z Z 0000               016959065823002ZFFIEW      ARKT0K 00000    EI03880000003                   00000000000000000000                                                                                                                                                                                                                                     
02EI 3081471031936668    MCCORMACK                     MICHAELTHOMASMR                                   NUA 01066UA 01066A2019061200000000MEX  EWR  Z C Z Z 0000               016959065823001ZFFIEW      ARKT0K 00000    EI03880000004                   00000000000000000000                                                                                                                                                                                                                                     
02EI 3081471049494346    MORRIS                        NIALLANTHONY                                      NUA 02249UA 02249A2019061200000000LAX  YVR  L Y L L 0000               016245777588201LKX46NCT    AVS3DK 00000    EI03880000005                   00000000000000000000                                                                                                                                                                                                                                     
02EI 3081471146682314    MACCARTHY                     WILLIAMMR                                         NUA 00027UA 00027A2019061200000000DEN  LHR  W Y W W 0000               016245158227603WKXNCB5/    A5RFGX 00000    EI03880000006                   00000000000000000000                                                                                                                                                                                                                                     
02EI 3081471146655849    LITTLE                        HEIDIMS                                           NUA 06034UA 06034A2019061200000000MCI  IAD  Q Y Q Q 0000               053241200131504YJ26BRT     BH9GZ4 00000    EI03880000007                   00000000000000000000                                                                                                                                                                                                                                     
02EI 3081471146049233    RYAN                          JOANMS                                            NUA 05396UA 05396A2019061200000000SFO  TUS  T Y T T 0000               053241199967202EJ26BRT     CB8FLR 00000    EI03880000008                   00000000000000000000                                                                                                                                                                                                                                     
02EI 3081471047230825    MCLARNON                      DAMIANMR                                          NUA 00126UA 00126A2019061200000000IAD  DUB  Q Y Q Q 0000               016319649611003QKXAXIE1    CX41PP 00000    EI03880000009                   00000000000000000000                                                                                                                                                                                                                                     
02EI 3081471039228472    HOOVER                        SAMANTHAMRS                                       NUA 05567EI 06655C2019061200000000OKC  ORD  L Y L O 0000               053241197094401OK2OUSWB    DG4HNP 00000    EI03880000010                   00000000000000000000                                                                                                                                                                                                                                     
02EI 3081471145787833    FOX                           DECLANJAMESMR                                     NUA 04994UA 04994A2019061200000000MSN  EWR  S Y S S 0000               016909820373301SAA2AFDN    DNQS1L 00000    EI03880000011                   00000000000000000000                                                                                                                                                                                                                                     
02EI 3081471145690110    BYRNEMS                       ROSEMARYANN                                       NUA 00975UA 00975A2019061200000000GVA  IAD  V Y V V 0000               016245716419801VKXNCB4     DZ48WL 00000    EI03880000012                   00000000000000000000                                                                                                                                                                                                                                     
02EI 3081471032265042    LAWLOR                        OILBHEMS                                          NUA 04941UA 04941A2019061200000000EWR  RIC  L Y L L 0000               053241198571702OJ26BRT     ESPD5Z 00000    EI03880000013                   00000000000000000000                                                                                                                                                                                                                                     
02EI 3081471145854104    GOELLNER                      SEBASTIAN                                         NUA 00023UA 00023A2019061200000000EWR  DUB  U Y U U 0000               016245588520102UKXRCB2     E2MVBL 00000    EI03880000014                   00000000000000000000                                                                                                                                                                                                                                     
02EI 3081471051170578    LU                            JONATHANS                                         NUA 03806UA 03806A2019061200000000ORD  MKE  L Y L L 0000               053735776421002OK2OUS      FXKRJ0 00000    EI03880000015                   00000000000000000000                                                                                                                                                                                                                                     
02EI 3081471047005110    SIMMONS                       KATHRYNMRS                                        NUA 00980UA 00980A2019061200000000IAD  DEN  S Y S S 0000               053241193396202GJWEB6OW    FZ9R61 00000    EI03880000016                   00000000000000000000                                                                                                                                                                                                                                     
02EI 3081471047005045    SIMMONS                       RICHARDMR                                         NUA 00980UA 00980A2019061200000000IAD  DEN  S Y S S 0000               053241193396102GJWEB6OW    FZ9R61 00000    EI03880000017                   00000000000000000000                                                                                                                                                                                                                                     
02EI 3081471047957559    GILROY                        ENDAJAMESMR                                       NUA 00223UA 00223A2019061200000000SFO  DEN  H Y H H 0000               016364547146401HAU4AFEN    GBCLFC 00000    EI03880000018                   00000000000000000000                                                                                                                                                                                                                                     
02EI 3081471047957559    GILROY                        ENDAJAMESMR                                       NUA 05363UA 05363A2019061200000000DEN  DSM  H Y H H 0000               016364547146402HAU4AFEN    GBCLFC 00000    EI03880000019                   00000000000000000000                                                                                                                                                                                                                                     
02EI 3081471145256375    COWLEY                        NIALLMR                                           NUA 01715EI 06325C2019061200000000ORD  MSP  S Y S M 0000               053241200906002MJ26BRT     IJL38E 00000    EI03880000020                   00000000000000000000                                                                                                                                                                                                                                     
02EI 3081471029639779    HARVEY                        TIMOTHYMICHAEL                                    NUA 00110UA 00110A2019061200000000EWR  LHR  D C D D 0000               016730880929901DNA40ERC    IK1GFR 00000    EI03880000021                   00000000000000000000                                                                                                                                                                                                                                     
02EI 3081471145578174    FALLON                        EILEENMS                                          NUA 00682UA 00682A2019061200000000DEN  ORD  P C P P 0000               053241195947601P30BUSBR    IXGH25 00000    EI03880000022                   00000000000000000000                                                                                                                                                                                                                                     
02EI 3081471145578174    FALLON                        JOHNMR                                            NUA 00682UA 00682A2019061200000000DEN  ORD  P C P P 0000               053241195947501P30BUSBR    IXGH25 00000    EI03880000023                   00000000000000000000                                                                                                                                                                                                                                     
02EI 3081471033217869    GUEVARA                       CAROLA                                            NUA 00242UA 00242A2019061200000000SFO  BOS  N Y N N 0000               016244616826702KAK2AQBN    I27J2B 00000    EI03880000024                   00000000000000000000                                                                                                                                                                                                                                     
02EI 3081471028599321    CULLAN                        STEPHANIEMISS                                     NUA 01603EI 06141C2019061200000000ORD  PHX  W Y W H 0000               053241198264502HJWEB6OW    I7KLKK 00000    EI03880000025                   00000000000000000000                                                                                                                                                                                                                                     
02EI 3081471033491225    CREANER                       JOHNARTHURMR                                      NUA 06296UA 06296A2019061200000000IAD  DFW  P C P P 0000               053241200068202P14BUSBR    I9C6N0 00000    EI03880000026                   00000000000000000000                                                                                                                                                                                                                                     
02EI 3081471052154936    RAKROUKI                      MICHELLE                                          NUA 02028UA 02028A2019061200000000DEN  IAH  K Y K K 0000               016245630130702KAA7TWDN    JEZKYT 00000    EI03880000027                   00000000000000000000                                                                                                                                                                                                                                     
02EI 3081471146790042    OSHAUGHNESSY                  IANDAVIDPATRICKTHOMASMR                           NUA 00023UA 00023A2019061200000000EWR  DUB  U Y U U 0000               016362768134702UKXRCB2     LHV8ZL 00000    EI03880000028                   00000000000000000000                                                                                                                                                                                                                                     
02EI 3081471037816047    BRATTON                       TERENCEMR                                         NUA 00152UA 00152A2019061200000000ORD  DUB  W Y W W 0000               016361672128604WKXAXIE1    MB2KGM 00000    EI03880000029                   00000000000000000000                                                                                                                                                                                                                                     
02EI 3081471037816047    BRATTON                       TERENCEMR                                         NUA 03920UA 03920A2019061200000000FSD  ORD  W Y W W 0000               016361672128603WKXAXIE1    MB2KGM 00000    EI03880000030                   00000000000000000000                                                                                                                                                                                                                                     
02EI 3081471030188717    HAWKINS                       TAMMYMISS                                         NUA 01778EI 06394C2019061200000000STL  ORD  P C P P 0000               053241199138503P30BUSBR    MPLHNN 00000    EI03880000031                   00000000000000000000                                                                                                                                                                                                                                     
02EI 3081471146061113    MCAUSLAN                      GARYDAVIDMR                                       NUA 00152LH 07771C2019061200000000ORD  DUB  W Y W W 0000               016362766498904WKXAXIE1    MTQ48Y 00000    EI03880000032                   00000000000000000000                                                                                                                                                                                                                                     
02EI 3081471146061113    MCAUSLAN                      GARYDAVIDMR                                       NUA 01897LH 09318C2019061200000000LAX  ORD  W Y W W 0000               016362766498903WKXAXIE1    MTQ48Y 00000    EI03880000033                   00000000000000000000                                                                                                                                                                                                                                     
02EI 3081471031806275    LAWLESS                       SARAHMS                                           NUA 01293UA 01293A2019061200000000EWR  CLE  G Y G G 0000               053241200105302WJ26BRT     NS9KZ5 00000    EI03880000034                   00000000000000000000                                                                                                                                                                                                                                     
02EI 3081471146682314    GUBBINS                       ITAMRS                                            NUA 00027UA 00027A2019061200000000DEN  LHR  V Y V V 0000               016728431792603VKXNCB5     N31YLH 00000    EI03880000035                   00000000000000000000                                                                                                                                                                                                                                     
02EI 3081471146682314    MACCARTHY                     CAOIMHEMRS                                        NUA 00027UA 00027A2019061200000000DEN  LHR  V Y V V 0000               016728431792703VKXNCB5     N31YLH 00000    EI03880000036                   00000000000000000000                                                                                                                                                                                                                                     
02EI 3081471029078622    MCGRANE                       GEORGE                                            NUA 01164UA 01164A2019061200000000SFO  YYZ  H Y H H 0000               016362767886402HNA0A9ES    N55X0T 00000    EI03880000037                   00000000000000000000                                                                                                                                                                                                                                     
02EI 3081471029078622    MCGRANE                       GEORGE                                            NUA 05873UA 05873A2019061200000000SNA  SFO  H Y H H 0000               016362767886401HNA0A9ES    N55X0T 00000    EI03880000038                   00000000000000000000                                                                                                                                                                                                                                     
02EI 3081471037812244    EKHAISE                       ODIONMR                                           NUA 00557UA 00557A2019061200000000IAH  EWR  S Y S S 0000               053241199577401NK2OUSWB    N7BZN4 00000    EI03880000039                   00000000000000000000                                                                                                                                                                                                                                     
02EI 3081471033339069    MURRAY                        SIMONMR                                           NUA 00126UA 00126A2019061200000000IAD  DUB  S Y S S 0000               016362764792804SKXNCF5     O5CGZZ 00000    EI03880000040                   00000000000000000000                                                                                                                                                                                                                                     
02EI 3081471050078707    WOODMAN                       MARYELIZABETHMS                                   NUA 01218EI 06096C2019061200000000ORD  IAH  L C L O 0000               053241199341602OK2OUSWB    O9YD6F 00000    EI03880000041                   00000000000000000000                                                                                                                                                                                                                                     
02EI 3081471146636054    HOWLEY                        DAVIDMR                                           NUA 05428EI 06471C2019061200000000ORD  BNA  L Y L O 0000               053241198905101OK2OUSWB    PNDQTD 00000    EI03880000042                   00000000000000000000                                                                                                                                                                                                                                     
02EI 3081471029756797    LADIO                         DIANAMISS                                         NUA 05428EI 06471C2019061200000000ORD  BNA  L Y L O 0000               053241198904901OK2OUSWB    PNDQT3 00000    EI03880000043                   00000000000000000000                                                                                                                                                                                                                                     
03000000043000000000000000000000000000                                                                                                                                                                                                                                                                                                                                                                                                                                                                              
